{
  "contractName": "Oracle",
  "abi": [
    {
      "inputs": [],
      "stateMutability": "nonpayable",
      "type": "constructor"
    },
    {
      "anonymous": false,
      "inputs": [],
      "name": "__callbackNewData",
      "type": "event"
    },
    {
      "inputs": [],
      "name": "numberAsteroids",
      "outputs": [
        {
          "internalType": "uint256",
          "name": "",
          "type": "uint256"
        }
      ],
      "stateMutability": "view",
      "type": "function",
      "constant": true
    },
    {
      "inputs": [],
      "name": "update",
      "outputs": [],
      "stateMutability": "nonpayable",
      "type": "function"
    },
    {
      "inputs": [
        {
          "internalType": "uint256",
          "name": "_num",
          "type": "uint256"
        }
      ],
      "name": "setNumberAsteroids",
      "outputs": [],
      "stateMutability": "nonpayable",
      "type": "function"
    }
  ],
  "bytecode": "0x608060405234801561001057600080fd5b50336000806101000a81548173ffffffffffffffffffffffffffffffffffffffff021916908373ffffffffffffffffffffffffffffffffffffffff160217905550610329806100606000396000f3fe608060405234801561001057600080fd5b50600436106100415760003560e01c8063402bc6bb14610046578063829400cb14610062578063a2e6204514610080575b600080fd5b610060600480360381019061005b919061021f565b61008a565b005b61006a610122565b604051610077919061025b565b60405180910390f35b610088610128565b005b60008054906101000a900473ffffffffffffffffffffffffffffffffffffffff1673ffffffffffffffffffffffffffffffffffffffff163373ffffffffffffffffffffffffffffffffffffffff1614610118576040517f08c379a000000000000000000000000000000000000000000000000000000000815260040161010f906102d3565b60405180910390fd5b8060018190555050565b60015481565b60008054906101000a900473ffffffffffffffffffffffffffffffffffffffff1673ffffffffffffffffffffffffffffffffffffffff163373ffffffffffffffffffffffffffffffffffffffff16146101b6576040517f08c379a00000000000000000000000000000000000000000000000000000000081526004016101ad906102d3565b60405180910390fd5b7f2bfb84d8e96bf2a06daf6ebca52197c6c24fcd7c9c9c1f434c3bc9e59a92f1c160405160405180910390a1565b600080fd5b6000819050919050565b6101fc816101e9565b811461020757600080fd5b50565b600081359050610219816101f3565b92915050565b600060208284031215610235576102346101e4565b5b60006102438482850161020a565b91505092915050565b610255816101e9565b82525050565b6000602082019050610270600083018461024c565b92915050565b600082825260208201905092915050565b7f4f6e6c79206f776e657200000000000000000000000000000000000000000000600082015250565b60006102bd600a83610276565b91506102c882610287565b602082019050919050565b600060208201905081810360008301526102ec816102b0565b905091905056fea26469706673582212208d9dd26ce016a0c1ae5e4b36280cf5e1f23a16d2913241be3962ab59d7eb2b5f64736f6c634300080d0033",
  "immutableReferences": {},
  "source": "// SPDX-Licence-Identifier: MIT// SPDX-License-Identifier: MIT\npragma solidity ^0.8.0;\n\ncontract Oracle {\n\n    // Direccion del owner\n    address owner;\n\n    // Numero de asteroides\n    uint public numberAsteroids;\n\n    // Evento que reciba datos del oraculo\n    event __callbackNewData();\n\n    // Constructor\n    constructor () public {\n        owner = msg.sender;\n    }\n\n    // Restriccion de la ejecucion de las funciones\n    modifier onlyOwner(){\n        require(msg.sender == owner, 'Only owner');\n        _;\n    }\n\n    // Recibe datos del oraculo\n    function update() public onlyOwner {\n        emit __callbackNewData();\n    }\n\n    // Funcion para configuracion manual del numero de asteroides\n    function setNumberAsteroids(uint _num) public onlyOwner {\n        numberAsteroids = _num;\n    }\n}",
  "sourcePath": "/Users/roquebugarin/Documents/Blockchain/Blockchain-Oracle/contracts/Oracle.sol",
  "compiler": {
    "name": "solc",
    "version": "0.8.13+commit.abaa5c0e.Emscripten.clang"
  },
  "schemaVersion": "3.4.7",
  "updatedAt": "2022-05-10T14:44:52.247Z",
  "networkType": "ethereum",
  "devdoc": {
    "kind": "dev",
    "methods": {},
    "version": 1
  },
  "userdoc": {
    "kind": "user",
    "methods": {},
    "version": 1
  }
}